:020000040000FA
:020000000A28CC
:10000800FE00030EF1000A08F20089290B28F80106
:10001800F901FA0183120313A001A101A2018301CE
:100028001528F701F70A831686110612861283121D
:1000380086110612861264211421CC30A320BE300A
:10004800A320DF208312A3002308A100DF2083124E
:10005800A3002308A00014211421CC30A32044308D
:10006800A320013079218B170B170310F70D722885
:10007800BE307A06031D83280230432804308312D9
:1000880003135D287A08013A03194228033A031931
:1000980083288328790883120313A3002308F80010
:1000A80006305D28790883120313A3002308A200F1
:1000B8000830A3002308F9008328EF307906031DD0
:1000C8006D28831203132208A3002308F30078087D
:1000D8003421831603139C186D2883287908013A64
:1000E80003193C28023A03194628063A03194E28F0
:1000F800023A031956280E3A03196128832877080B
:1001080003198D28F7018312031386150616A821F3
:100118009428F701F70A8312031386110612AA21FD
:100128001A3083120313A5005E30A4006E30A300BA
:10013800A30B9C28A40B9C28A50B9C283928F40009
:10014800F5010130F300750AAB280310F30DFF3EEB
:10015800031DA928730874050319C32883160313FC
:100168008510831285100330F300F30BB92883162A
:10017800031385148530F300F30BC028D3288316A6
:1001880003138510831285108530F300F30BCA28FA
:100198008316031385140330F300F30BD1280130C1
:1001A800F3007308F50708307502031CA5288316A9
:1001B800031385140800F501F6018316031385104F
:1001C800831285100330F300F30BE828831603131A
:1001D80085140930F300F30BEF28F2288312031378
:1001E800851C03290130F300760AFC280310F30D5F
:1001F800FF3E031DFA287308F4007408F5078530DC
:10020800F300F30B05290130F3007308F6070830F3
:100218007602031CE1288316031385147508080069
:10022800831603138510831285100430F400E4301C
:10023800F300F30B1D29F40B1D290000831603138B
:100248008514A630F300F30B272900000430F400CE
:10025800E430F300F30B2E29F40B2E2900000800DC
:10026800F50083169C18352975089B0073089A00B9
:100278003F30F40074089C0503108B1B03148B1388
:100288001C1555309D00AA309D009C141C11031CA0
:1002980008008B17080001308A000408840A8207C6
:1002A800003446344C344334513420347634653485
:1002B80072342E34203431342E3430340A3400343D
:1002C8008316061186141430990018151812831213
:1002D80098171816981283160C128C161813831276
:1002E80018138316981298160800F50075088400EC
:1002F8004F21003A03190800750884004F21A121F5
:100308000130F4007408F5077A29831203138C1E50
:1003180092299921F0007008FA00791472088A006D
:10032800710E8300FE0E7E0E0900981C9D2918127E
:1003380018168C1E9D291A080800F30083120C1E3B
:10034800A22973089900080086160800861208007A
:02400E000AFFA7
:00000001FF
